{
  "contractName": "Election",
  "abi": [
    {
      "inputs": [],
      "stateMutability": "nonpayable",
      "type": "constructor"
    },
    {
      "anonymous": false,
      "inputs": [
        {
          "indexed": true,
          "internalType": "string",
          "name": "pollId",
          "type": "string"
        },
        {
          "indexed": true,
          "internalType": "string",
          "name": "option",
          "type": "string"
        }
      ],
      "name": "votedEvent",
      "type": "event"
    },
    {
      "inputs": [
        {
          "internalType": "string",
          "name": "",
          "type": "string"
        }
      ],
      "name": "polls",
      "outputs": [
        {
          "internalType": "string",
          "name": "pollId",
          "type": "string"
        }
      ],
      "stateMutability": "view",
      "type": "function",
      "constant": true
    },
    {
      "inputs": [
        {
          "internalType": "uint256",
          "name": "",
          "type": "uint256"
        }
      ],
      "name": "users",
      "outputs": [
        {
          "internalType": "string",
          "name": "pollId",
          "type": "string"
        },
        {
          "internalType": "address",
          "name": "voter",
          "type": "address"
        }
      ],
      "stateMutability": "view",
      "type": "function",
      "constant": true
    },
    {
      "inputs": [
        {
          "internalType": "string",
          "name": "_pollId",
          "type": "string"
        },
        {
          "internalType": "string",
          "name": "_option",
          "type": "string"
        },
        {
          "internalType": "uint256",
          "name": "_id",
          "type": "uint256"
        }
      ],
      "name": "vote",
      "outputs": [],
      "stateMutability": "nonpayable",
      "type": "function"
    },
    {
      "inputs": [
        {
          "internalType": "string",
          "name": "_pollId",
          "type": "string"
        },
        {
          "internalType": "string",
          "name": "_option",
          "type": "string"
        }
      ],
      "name": "getVotesCount",
      "outputs": [
        {
          "internalType": "uint256",
          "name": "",
          "type": "uint256"
        }
      ],
      "stateMutability": "view",
      "type": "function",
      "constant": true
    },
    {
      "inputs": [],
      "name": "getNoOfUniqueVoters",
      "outputs": [
        {
          "internalType": "uint256",
          "name": "",
          "type": "uint256"
        }
      ],
      "stateMutability": "view",
      "type": "function",
      "constant": true
    }
  ],
  "bytecode": "0x608060405234801561001057600080fd5b50611217806100206000396000f3fe608060405234801561001057600080fd5b50600436106100575760003560e01c8063365b98b21461005c5780637a4c96ad146101205780638058316a1461027c578063c006dec3146103b0578063f521251214610516575b600080fd5b6100886004803603602081101561007257600080fd5b8101908080359060200190929190505050610534565b60405180806020018373ffffffffffffffffffffffffffffffffffffffff168152602001828103825284818151815260200191508051906020019080838360005b838110156100e45780820151818401526020810190506100c9565b50505050905090810190601f1680156101115780820380516001836020036101000a031916815260200191505b50935050505060405180910390f35b61027a6004803603606081101561013657600080fd5b810190808035906020019064010000000081111561015357600080fd5b82018360208201111561016557600080fd5b8035906020019184600183028401116401000000008311171561018757600080fd5b91908080601f016020809104026020016040519081016040528093929190818152602001838380828437600081840152601f19601f820116905080830192505050505050509192919290803590602001906401000000008111156101ea57600080fd5b8201836020820111156101fc57600080fd5b8035906020019184600183028401116401000000008311171561021e57600080fd5b91908080601f016020809104026020016040519081016040528093929190818152602001838380828437600081840152601f19601f8201169050808301925050505050505091929192908035906020019092919050505061061d565b005b6103356004803603602081101561029257600080fd5b81019080803590602001906401000000008111156102af57600080fd5b8201836020820111156102c157600080fd5b803590602001918460018302840111640100000000831117156102e357600080fd5b91908080601f016020809104026020016040519081016040528093929190818152602001838380828437600081840152601f19601f820116905080830192505050505050509192919290505050610f61565b6040518080602001828103825283818151815260200191508051906020019080838360005b8381101561037557808201518184015260208101905061035a565b50505050905090810190601f1680156103a25780820380516001836020036101000a031916815260200191505b509250505060405180910390f35b610500600480360360408110156103c657600080fd5b81019080803590602001906401000000008111156103e357600080fd5b8201836020820111156103f557600080fd5b8035906020019184600183028401116401000000008311171561041757600080fd5b91908080601f016020809104026020016040519081016040528093929190818152602001838380828437600081840152601f19601f8201169050808301925050505050505091929192908035906020019064010000000081111561047a57600080fd5b82018360208201111561048c57600080fd5b803590602001918460018302840111640100000000831117156104ae57600080fd5b91908080601f016020809104026020016040519081016040528093929190818152602001838380828437600081840152601f19601f82011690508083019250505050505050919291929050505061102d565b6040518082815260200191505060405180910390f35b61051e61110a565b6040518082815260200191505060405180910390f35b6001818154811061054157fe5b9060005260206000209060020201600091509050806000018054600181600116156101000203166002900480601f0160208091040260200160405190810160405280929190818152602001828054600181600116156101000203166002900480156105ed5780601f106105c2576101008083540402835291602001916105ed565b820191906000526020600020905b8154815290600101906020018083116105d057829003601f168201915b5050505050908060010160009054906101000a900473ffffffffffffffffffffffffffffffffffffffff16905082565b60005b60018054905081101561080f57836040516020018082805190602001908083835b602083106106645780518252602082019150602081019050602083039250610641565b6001836020036101000a03801982511681845116808217855250505050505090500191505060405160208183030381529060405280519060200120600182815481106106ac57fe5b9060005260206000209060020201600001604051602001808280546001816001161561010002031660029004801561071b5780601f106106f957610100808354040283529182019161071b565b820191906000526020600020905b815481529060010190602001808311610707575b5050915050604051602081830303815290604052805190602001201480156107ac57503373ffffffffffffffffffffffffffffffffffffffff166001828154811061076257fe5b906000526020600020906002020160010160009054906101000a900473ffffffffffffffffffffffffffffffffffffffff1673ffffffffffffffffffffffffffffffffffffffff16145b15610802576040517f08c379a000000000000000000000000000000000000000000000000000000000815260040180806020018281038252602d8152602001806111b5602d913960400191505060405180910390fd5b8080600101915050610620565b50826040516020018082805190602001908083835b602083106108475780518252602082019150602081019050602083039250610824565b6001836020036101000a038019825116818451168082178552505050505050905001915050604051602081830303815290604052805190602001206000846040518082805190602001908083835b602083106108b85780518252602082019150602081019050602083039250610895565b6001836020036101000a0380198251168184511680821785525050505050509050019150509081526020016040518091039020600001604051602001808280546001816001161561010002031660029004801561094c5780601f1061092a57610100808354040283529182019161094c565b820191906000526020600020905b815481529060010190602001808311610938575b505091505060405160208183030381529060405280519060200120148015610ad95750816040516020018082805190602001908083835b602083106109a65780518252602082019150602081019050602083039250610983565b6001836020036101000a038019825116818451168082178552505050505050905001915050604051602081830303815290604052805190602001206000846040518082805190602001908083835b60208310610a1757805182526020820191506020810190506020830392506109f4565b6001836020036101000a038019825116818451168082178552505050505050905001915050908152602001604051809103902060010160008381526020019081526020016000206040516020018082805460018160011615610100020316600290048015610abc5780601f10610a9a576101008083540402835291820191610abc565b820191906000526020600020905b815481529060010190602001808311610aa8575b505091505060405160208183030381529060405280519060200120145b15610bc55760016000846040518082805190602001908083835b60208310610b165780518252602082019150602081019050602083039250610af3565b6001836020036101000a0380198251168184511680821785525050505050509050019150509081526020016040518091039020600201836040518082805190602001908083835b60208310610b805780518252602082019150602081019050602083039250610b5d565b6001836020036101000a038019825116818451168082178552505050505050905001915050908152602001604051809103902060008282540192505081905550610f5c565b600160405180604001604052808581526020013373ffffffffffffffffffffffffffffffffffffffff1681525090806001815401808255809150506001900390600052602060002090600202016000909190919091506000820151816000019080519060200190610c37929190611117565b5060208201518160010160006101000a81548173ffffffffffffffffffffffffffffffffffffffff021916908373ffffffffffffffffffffffffffffffffffffffff1602179055505050826000846040518082805190602001908083835b60208310610cb85780518252602082019150602081019050602083039250610c95565b6001836020036101000a03801982511681845116808217855250505050505090500191505090815260200160405180910390206000019080519060200190610d01929190611117565b50816000846040518082805190602001908083835b60208310610d395780518252602082019150602081019050602083039250610d16565b6001836020036101000a038019825116818451168082178552505050505050905001915050908152602001604051809103902060010160008381526020019081526020016000209080519060200190610d93929190611117565b5060016000846040518082805190602001908083835b60208310610dcc5780518252602082019150602081019050602083039250610da9565b6001836020036101000a0380198251168184511680821785525050505050509050019150509081526020016040518091039020600201836040518082805190602001908083835b60208310610e365780518252602082019150602081019050602083039250610e13565b6001836020036101000a038019825116818451168082178552505050505050905001915050908152602001604051809103902081905550816040518082805190602001908083835b60208310610ea15780518252602082019150602081019050602083039250610e7e565b6001836020036101000a0380198251168184511680821785525050505050509050019150506040518091039020836040518082805190602001908083835b60208310610f025780518252602082019150602081019050602083039250610edf565b6001836020036101000a03801982511681845116808217855250505050505090500191505060405180910390207fb72bc004d3c880dde5aa3e326a8cd34deb7b664a4eccf90d78bce917dce6964f60405160405180910390a35b505050565b600081805160208101820180518482526020830160208501208183528095505050505050600091509050806000018054600181600116156101000203166002900480601f0160208091040260200160405190810160405280929190818152602001828054600181600116156101000203166002900480156110235780601f10610ff857610100808354040283529160200191611023565b820191906000526020600020905b81548152906001019060200180831161100657829003601f168201915b5050505050905081565b600080836040518082805190602001908083835b602083106110645780518252602082019150602081019050602083039250611041565b6001836020036101000a0380198251168184511680821785525050505050509050019150509081526020016040518091039020600201826040518082805190602001908083835b602083106110ce57805182526020820191506020810190506020830392506110ab565b6001836020036101000a038019825116818451168082178552505050505050905001915050908152602001604051809103902054905092915050565b6000600180549050905090565b828054600181600116156101000203166002900490600052602060002090601f016020900481019282601f1061115857805160ff1916838001178555611186565b82800160010185558215611186579182015b8281111561118557825182559160200191906001019061116a565b5b5090506111939190611197565b5090565b5b808211156111b0576000816000905550600101611198565b509056fe4552524f523a20596f752061726520616c726561647920766f7465642066726f6d207468697320706f6c6c4964a2646970667358221220d6fe099dd8993a2dd00d4835bbb6a1652b1434386fc04980603d7c74018ac49364736f6c634300060c0033",
  "immutableReferences": {},
  "source": "// SPDX-License-Identifier: MIT; \npragma solidity ^0.6.12;\n\ncontract Election {\n\n/**\nstruct for tracking polls\n */\n\nstruct Poll {\nstring pollId;\n//get choices\n// choiceId => Choices;\nmapping( uint256 => string) getChoices;\n//choice => voteCount\nmapping (string => uint256) voteCount;\n}\n\n/**\n* struct array for storage pollid => pollStruct\n*/\n\nmapping (string => Poll) public polls;\n\n/**\n* User struct for storing user related data.\n */\nstruct User {\nstring pollId;\naddress voter;\n}\n\n/**\n* User Struct array.\n */\nUser[] public users;\n\n\nconstructor() public {}\n\n/*\nevent for voting stream\n*/\nevent votedEvent(string indexed pollId, string indexed option);\n\n\n/*\nvote function \n */\nfunction vote(string memory _pollId, string memory _option,uint256 _id) public {\n\nfor (uint u =0; u < users.length; u++) {\n       if( keccak256(abi.encodePacked((users[u].pollId))) ==\n        keccak256(abi.encodePacked((_pollId))) && users[u].voter == msg.sender){\n            revert(\"ERROR: You are already voted from this pollId\"); \n        }\n}\n\n    if(keccak256(abi.encodePacked((polls[_pollId].pollId))) ==\n            keccak256(abi.encodePacked((_pollId))) &&\n            (keccak256(abi.encodePacked(polls[_pollId].getChoices[_id])) ==\n                (keccak256(abi.encodePacked(_option)))) ){\n                    polls[_pollId].voteCount[_option] +=1;    \n } \nelse{\n\n  // register the user  \n  users.push(User({\n    pollId: _pollId,\n    voter: msg.sender\n  }));\n\n  // add to the poll array successfully\n\n  polls[_pollId].pollId = _pollId;\n  polls[_pollId].getChoices[_id] = _option;\n  polls[_pollId].voteCount[_option] = 1;\n  emit votedEvent(_pollId, _option);   \n}\n\n}\n\nfunction getVotesCount(string memory _pollId,string memory _option) public view returns(uint256){\n  return polls[_pollId].voteCount[_option];\n}\n\nfunction getNoOfUniqueVoters() public view returns(uint256){\n  return users.length;\n}\n\n}",
  "sourcePath": "/home/bhupendra/election/contracts/Election.sol",
  "compiler": {
    "name": "solc",
    "version": "0.6.12+commit.27d51765.Emscripten.clang"
  },
  "schemaVersion": "3.2.5",
  "updatedAt": "2021-01-16T13:18:59.430Z",
  "networkType": "ethereum",
  "devdoc": {
    "kind": "dev",
    "methods": {},
    "version": 1
  },
  "userdoc": {
    "kind": "user",
    "methods": {
      "polls(string)": {
        "notice": "struct array for storage pollid => pollStruct"
      },
      "users(uint256)": {
        "notice": "User Struct array."
      }
    },
    "version": 1
  }
}